:100000000C94C3130C94ED130C94ED130C94ED139A
:100010000C94ED130C94ED130C94ED130C94ED1360
:100020000C94ED130C94ED130C9486D50C9403D61C
:100030000C94ED130C94ED130C94ED130C94ED1340
:100040000C94ED130C9477940C94ED130C94ED1325
:100050000C94ED130C94ED130C94F9A80C94E5D4C6
:100060000C94ED130C94ED130C94ED130C94ED1310
:100070000C94ED130C94ED130C94ED130C94ED1300
:100080000C94ED130C94ED130C94ED130C94ED13F0
:100090000C94CACD0C94ED134E414E494E4954591F
:1000A000494E46CDCCCC3D0AD7233C17B7D1387743
:1000B000CC2B329595E6241FB14F0A000020410059
:1000C00000C84200401C4620BCBE4CCA1B0E5AAEA3
:1000D000C59D744572726F722077726974696E671C
:1000E00020746F20454550524F4D210A002020506A
:1000F0006C616E6E65724275666665724279746592
:10010000733A20002046726565204D656D6F7279E7
:100110003A2000436F6D70696C65643A204A616EE5
:1001200020203120323032310A00204C617374209B
:10013000557064617465643A20323032312D30314B
:100140002D3031207C20417574686F723A20286A06
:100150006477616C6C6163652C206A6477616C6C98
:100160006163652E636F6D290A0062756766697841
:100170002D322E302E780A0020536F66747761720C
:10018000652052657365740A002057617463686462
:100190006F672052657365740A002042726F776E34
:1001A000206F75742052657365740A002045787459
:1001B00065726E616C2052657365740A00506F77CA
:1001C000657255700A0073746172740A0050726926
:1001D0006E7465722068616C7465642E206B696C46
:1001E0006C28292063616C6C6564210A0021212040
:1001F0004B494C4C206361757365642062792074AF
:100200006F6F206D75636820696E616374697665D0
:100210002074696D65202D2063757272656E74207F
:10022000636F6D6D616E643A20004D313030310086
:1002300047323858590020453A00205A3A00205990
:100240003A0020583A00204500205A00205900204A
:100250005800204200583A002054002050004D32EF
:1002600033202573004D3131322053687574646F2B
:10027000776E00004B494C4C45442E20004D617276
:100280006C696E004F4646004F4E006563686F3ADA
:10029000004572726F723A00290020280029002060
:1002A00028002900202800290020280053746570A8
:1002B0007065722063757272656E742076616C75FC
:1002C000657320696E20252028416D7073293A0AD4
:1002D00000507265737320627574746F6E20746F52
:1002E0002068656174206E6F7A7A6C650A005072BE
:1002F00065737320627574746F6E20746F207265FD
:1003000073756D650A00496E736572742066696C59
:10031000616D656E7420616E642070726573732008
:10032000627574746F6E0A00486F74656E64207431
:100330006F6F20636F6C640A00496E73657274207E
:1003400066696C616D656E7420616E6420707265A3
:10035000737320627574746F6E0A00426564204C7A
:100360006576656C696E6720004661696C6564201E
:10037000746F20656E61626C6520426564204C6517
:1003800076656C696E670A00426564204C65766527
:100390006C20436F7272656374696F6E204D617477
:1003A0007269783A000A0A426564204C6576656C89
:1003B00020436F7272656374696F6E204D61747251
:1003C00069783A0025532025692F33002F332E0AF0
:1003D0000050726F62696E6720706F696E742000E2
:1003E000202844525952554E290047323920417530
:1003F000746F20426564204C6576656C696E670099
:100400003F2856296572626F7365206C6576656C4E
:1004100020696D706C61757369626C652028302D80
:1004200034292E0A0050726F62696E6720506F691E
:100430006E74005A2050726F626520506173742090
:100440004265640A00FF01FF00007C43000018437E
:1004500000001B435A2050726F6265205061737414
:100460002042656400205200416363656C657261DF
:1004700074696F6E3A20500046523A0020466C6F05
:10048000773A2000496E76616C69642065787472F1
:10049000756465720A0020643A0020693A00207091
:1004A0003A0043290A0061626C656420286D696E18
:1004B0002074656D70200064697300656E00436F81
:1004C0006C64206578747275646573206172652050
:1004D0000020643A0020693A0020703A00204D392B
:1004E000322058004543484F00494E464F00455280
:1004F000524F52530044525952554E00434F4D4DA6
:10050000554E49434154494F4E006F666600E4041E
:10051000E904EE04F504FC0444454255473A004E14
:100520006F204D6F76652E0020204D61783A2000B7
:1005300020204D696E3A20002000536F66742065BC
:100540006E6473746F70733A20005072696E7472C7
:10055000626F742053696D706C65204D6574616CB9
:10056000204F46462E00454550524F4D204F4B0AD6
:1005700000416476616E6365204B3D002E0A0020C9
:1005800028302D313029002076616C7565206F751B
:1005900074206F662072616E676500627573793AC8
:1005A0002070617573656420666F7220696E707566
:1005B000740A00627573793A2070617573656420FE
:1005C000666F7220757365720A00627573793A20DE
:1005D00070726F63657373696E670A0020496E7687
:1005E000616C696420657874727564657220004579
:1005F00072723A20546F6F206661722100546F6FDF
:10060000206661722066726F6D2072656665726524
:100610006E636520706F696E740A004D323036204B
:1006200058000000000000001843000000004F6662
:100630006673657473204170706C696564004D3138
:1006400031332053004361703A004348414D4245E5
:10065000525F54454D504552415455524500424118
:1006600042595354455050494E470041524353005C
:100670004D4F54494F4E5F4D4F44455300544845EC
:10068000524D414C5F50524F54454354494F4E00D8
:100690004C4F4E475F46494C454E414D45004155F4
:1006A000544F5245504F52545F53445F535441543A
:1006B0005553005245504541540053444341524420
:1006C0000050524F4D50545F535550504F525400AC
:1006D000454D455247454E43595F5041525345524F
:1006E00000434153455F4C494748545F4252494794
:1006F00048544E45535300544F47474C455F4C496F
:100700004748545300534F4654574152455F504F4A
:10071000574552004255494C445F50455243454E5F
:1007200054004C4556454C494E475F4441544100A6
:100730005A5F50524F42450052554E4F555400415A
:1007400055544F4C4556454C005052494E545F4A03
:100750004F420050524F4752455353004155544F5A
:100760005245504F52545F54454D5000564F4C55D2
:100770004D455452494300454550524F4D00424962
:100780004E4152595F46494C455F5452414E534683
:1007900045520053455249414C5F584F4E5F584FA8
:1007A0004646004649524D574152455F4E414D45E0
:1007B0003A4D61726C696E206275676669782D3298
:1007C0002E302E7820284A616E202031203230329F
:1007D000312030323A31303A31362920534F555298
:1007E00043455F434F44455F55524C3A67697468CF
:1007F00075622E636F6D2F4D61726C696E46697202
:100800006D776172652F4D61726C696E2050524F29
:10081000544F434F4C5F56455253494F4E3A312E39
:1008200030204D414348494E455F545950453A5058
:1008300072696E7472626F742053696D706C65209A
:100840004D6574616C2045585452554445525F4380
:100850004F554E543A3120555549443A343063652A
:10086000363164312D326564302D343533302D38D6
:100870003330342D35356533656561616562666693
:100880000A002F2F2000536C6565702E2E2E00500D
:10089000726F6265204F6666736574205A005072ED
:1008A0006F6265204F6666736574205A00220A00E5
:1008B000556E6B6E6F776E20636F6D6D616E643A0F
:1008C000202200205A3A200020593A200042656434
:1008D00020583A2000290A0020746F20003F5A2037
:1008E0006F7574206F662072616E6765202800291D
:1008F0000A0020746F20003F59206F7574206F66C6
:100900002072616E676520282D00290A0020746F0F
:1009100020003F58206F7574206F662072616E67EB
:100920006520282D0050726F6265204F66667365E2
:1009300074205800446F6E6520736176696E67207D
:1009400066696C652E0A005072696E746572207358
:10095000746F707065642064756520746F206572B3
:10096000726F72732E2046697820746865206572F4
:10097000726F7220616E6420757365204D3939394C
:1009800020746F20726573746172742E2028546510
:100990006D7065726174757265206973207265731C
:1009A00065742E20536574206974206166746572C5
:1009B0002072657374617274696E67290A004E6FE4
:1009C00020436865636B73756D2077697468206C6C
:1009D000696E65206E756D6265722C204C61737452
:1009E000204C696E653A20004E6F20436865636B4A
:1009F00073756D2077697468206C696E65206E75FB
:100A00006D6265722C204C617374204C696E653A7E
:100A10002000636865636B73756D206D69736D612C
:100A20007463682C204C617374204C696E653A20A5
:100A3000004C696E65204E756D6265722069732089
:100A40006E6F74204C617374204C696E65204E7516
:100A50006D6265722B312C204C617374204C696E71
:100A6000653A20004D31313000776169740A0052D7
:100A70006573656E643A20006F6B005344207265A5
:100A80006164206572726F720A004D3239005354EE
:100A90004F505045442E20004D383400446F6E6551
:100AA000207072696E74696E672066696C650A00F1
:100AB0004D3737004D3331004E6F206D65646961ED
:100AC0000A00456E642066696C65206C6973740A5F
:100AD00000426567696E2066696C65206C69737495
:100AE0000A0043757272656E742066696C653A20FF
:100AF000005072696E742074696D653A2000256932
:100B0000730025696D2025697300256968202569B2
:100B10006D20256973002569642025696820256991
:100B20006D20256973002569792025696420256970
:100B3000682025696D20256973006F6B004265642C
:100B400020436F6F6C696E672E2E2E004265642005
:100B500048656174696E672E2E2E0050494420410D
:100B600075746F74756E65206661696C65642120AB
:100B7000426164206578747275646572206E756D6B
:100B80006265720A00504944204175746F74756E35
:100B90006500A10000006900A20000006300B00031
:100BA00000000900C10000004100C2000000410037
:100BB000C30000004100C40000004100C500000067
:100BC0004100C60000004145C70000004300C800C6
:100BD00000004500C90000004500CD0000004900AC
:100BE000D10000004E00D50000004F00D6000000EC
:100BF0004F00D70000007800DC0000005500DD0049
:100C000000005900E00000006100E1000000610008
:100C1000E20000006100E30000006100E400000069
:100C20006100E50000006100E60000006165E7008A
:100C300000006300E80000006500E90000006500B6
:100C4000EA0000006500EB0000006500EC00000019
:100C50006900ED0000006900EE0000006900EF008F
:100C600000006900F10000006E00F20000006F005B
:100C7000F30000006F00F40000006F00F5000000BA
:100C80006F00F60000006F00F80000006F00F90030
:100C900000007500FA0000007500FB000000750000
:100CA000FC0000007500FD0000007900FF0000005E
:100CB0007900040100004100050100006100060107
:100CC000000043000701000063000C010000430026
:100CD0000D01000063000E01000044000F01000040
:100CE00064001101000064001901000065001A0190
:100CF000000045001B01000065001F0100006700A7
:100D0000300100004900310100006900410100008C
:100D10004C00420100006C00430100004E00440101
:100D200000006E00480100006E00580100005200F3
:100D30005901000072005A01000053005B010000DD
:100D400073005F0100007300600100005300610147
:100D5000000073006501000074006F010000750061
:100D60007C0100007A007D0100005A007E01000035
:100D70007A00920100006600E30200007800222061
:100D800000002E001E210000507822210000544D4A
:100D9000902100003C2D922100002D3EB02100004A
:100DA0000300BB21000004003C2200007E0048221A
:100DB00000007E3D60220000213D612200003D00D8
:100DC000642200003C3D652200003E3DF12300000E
:100DD0000700A03000003D0021F301000200C2F432
:100DE00001000500A2000000EC00B0000000DF00E0
:100DF000E4000000E100F6000000EF00F700000052
:100E0000FD00FC000000F500E3020000EB0087039A
:100E10000000A5008F030000F40098030000F2001A
:100E20009E030000E300A3030000F600A9030000F6
:100E3000F400AC030000E000AD030000E300B103E8
:100E40000000E000B2030000E200B5030000E30090
:100E5000B8030000F200BC030000E400BE03000081
:100E6000E300C0030000F700C1030000E600C30375
:100E70000000E500902100007F00922100007E002C
:100E80001A220000E8001E220000F300882500005E
:100E9000FF0002300000A1000C300000A2000D3065
:100EA0000000A3009B300000DE009C300000DF004B
:100EB000A03000003D00A1300000A700A2300000DB
:100EC000B100A3300000A800A4300000B200A5309B
:100ED0000000A900A6300000B300A7300000AA005F
:100EE000A8300000B400A9300000AB00AA30000018
:100EF000B500AB300000B600AC300000B6DEAD305F
:100F00000000B700AE300000B7DEAF300000B80020
:100F1000B0300000B8DEB1300000B900B2300000DF
:100F2000B9DEB3300000BA00B4300000BADEB5302C
:100F30000000BB00B6300000BBDEB7300000BC00D4
:100F4000B8300000BCDEB9300000BD00BA3000008F
:100F5000BDDEBB300000BE00BC300000BEDEBD30D8
:100F60000000BF00BE300000BFDEBF300000C00088
:100F7000C0300000C0DEC1300000C100C23000003F
:100F8000C1DEC3300000AF00C4300000C200C53075
:100F90000000C2DEC6300000C300C7300000C3DE60
:100FA000C8300000C400C9300000C4DECA300000F0
:100FB000C500CB300000C600CC300000C700CD30EB
:100FC0000000C800CE300000C900CF300000CA00C9
:100FD000D0300000CADED1300000CADFD2300000BD
:100FE000CB00D3300000CBDED4300000CBDFD530D7
:100FF0000000CC00D6300000CCDED7300000CCDFC3
:10100000D8300000CD00D9300000CDDEDA3000004D
:10101000CDDFDB300000CE00DC300000CEDEDD3086
:101020000000CEDFDE300000CF00DF300000D00057
:10103000E0300000D100E1300000D200E2300000DA
:10104000D300E3300000AC00E4300000D400E53011
:101050000000AD00E6300000D500E7300000AE0033
:10106000E8300000D600E9300000D700EA30000088
:10107000D800EB300000D900EC300000DA00ED3091
:101080000000DB00EF300000DC00F2300000A600C2
:10109000F3300000DD00F4300000B3DEF730000074
:1010A000DCDEFA300000A6DEFB300000A500FC30DC
:1010B0000000B000FD300000A400074E0000FB005F
:1010C00086510000FC0043530000FA0064FF00005A
:1010D000A40065FF0000A50066FF0000A60067FFF2
:1010E0000000A70068FF0000A80069FF0000A90039
:1010F0006AFF0000AA006BFF0000AB006CFF00005D
:10110000AC006DFF0000AD006EFF0000AE006FFF91
:101110000000AF0070FF0000B00071FF0000B100E0
:1011200072FF0000B20073FF0000B30074FF000004
:10113000B40075FF0000B50076FF0000B60077FF31
:101140000000B70078FF0000B80079FF0000B90088
:101150007AFF0000BA007BFF0000BB007CFF0000AC
:10116000BC007DFF0000BD007EFF0000BE007FFFD1
:101170000000BF0080FF0000C00081FF0000C10030
:1011800082FF0000C20083FF0000C30084FF000054
:10119000C40085FF0000C50086FF0000C60087FF71
:1011A0000000C70088FF0000C80089FF0000C900D8
:1011B0008AFF0000CA008BFF0000CB008CFF0000FC
:1011C000CC008DFF0000CD008EFF0000CE008FFF11
:1011D0000000CF0090FF0000D00091FF0000D10080
:1011E00092FF0000D20093FF0000D30094FF0000A4
:1011F000D40095FF0000D50096FF0000D60097FFB1
:101200000000D70098FF0000D80099FF0000D90027
:101210009AFF0000DA009BFF0000DB009CFF00004B
:10122000DC009DFF0000DD009EFF0000DE009FFF50
:101230000000DF00E5FF00005C00040E1F041C003E
:101240000000000E1315110E00001C1018170506E3
:101250000500040A0A0A0A11110E0C12120C0000F1
:101260000000001F1511151F00002D2D2D005344E7
:101270000020202020002020202020202000256881
:10128000753A25303268750025303268753A253058
:1012900032687500506C65617365205265736574C2
:1012A000005052494E5445522048414C5445440048
:1012B00025533A202553005072696E74696E672E6B
:1012C0002E2E005072696E74205061757365640033
:1012D0004D6564696120496E736572746564005080
:1012E00072696E7472626F742053696D706C6520E0
:1012F0004D6574616C2052656164792E006F706574
:101300006E00545249474745524544003A20007AFE
:101310005F6D696E00795F6D617800785F6D696EF1
:10132000005265706F7274696E6720656E647374C5
:101330006F70207374617475730A002553202563E0
:1013400020256320256320256300205A3A00205978
:101350003A0020583A00656E6473746F70732068A9
:1013600069743A2000486F6D696E67204661696C48
:10137000656400456E6473746F7073005761726EBC
:10138000696E673A20486F6D696E672042756D70AF
:101390002044697669736F72203C20310A00020292
:1013A0000420746F6F206C6F6E672065787472759F
:1013B00073696F6E2070726576656E7465640A007D
:1013C00020636F6C6420657874727573696F6E202A
:1013D00070726576656E7465640A000000A0400056
:1013E00000A0400000004000007C430000184300C3
:1013F000001B430000000000000000000000004847
:101400006F6D65202573257325732046697273748B
:101410000020746F6F206C6F6E6720657874727532
:1014200073696F6E2070726576656E7465640A000C
:1014300020636F6C6420657874727573696F6E20B9
:1014400070726576656E7465640A0050726F6269C9
:101450006E67204661696C65640A00205A3A200074
:1014600020593A200042656420583A200050726F9B
:1014700062696E67204661696C6564003B200020EC
:1014800055004C0046696C616D656E74206C6F612F
:10149000642F756E6C6F6164206C656E6774687321
:1014A0003A0020204D393030204B004C696E656188
:1014B0007220416476616E63653A0020204D3835B4
:1014C000312058005A2D50726F6265204F66667346
:1014D00065740020204D3230392053004175746FFF
:1014E0002D526574726163743A20533D3020746FDD
:1014F0002064697361626C652C203120746F2069EF
:101500006E7465727072657420452D6F6E6C7920F3
:101510006D6F766573206173207265747261637498
:101520002F7265636F766572002046002057002099
:10153000204D3230382053005265636F7665723A21
:1015400020533C6C656E6774683E20463C756E693E
:1015500074732F6D3E0020460020570020204D322E
:101560003037205300526574726163743A20533CE3
:101570006C656E6774683E20463C756E6974732FA7
:101580006D3E205A3C6C6966743E00204400204940
:101590000020204D333034205000204400204900EA
:1015A00020204D3330312050005049442073657461
:1015B00074696E67733A0020204D34323020530036
:1015C0004175746F20426564204C6576656C696E68
:1015D000673A0020204D323036205800486F6D6544
:1015E000206F66667365743A0020530020204D32E8
:1015F0003035204200416476616E6365643A204272
:101600003C6D696E5F7365676D656E745F74696D5F
:10161000655F75733E20533C6D696E5F66656564FA
:10162000726174653E20543C6D696E5F74726176C0
:10163000656C5F66656564726174653E20583C6DDB
:1016400061785F785F6A65726B3E20593C6D6178A6
:101650005F795F6A65726B3E205A3C6D61785F7A94
:101660005F6A65726B3E20453C6D61785F655F6ABD
:1016700065726B3E0020520020204D3230342050E5
:1016800000416363656C65726174696F6E202875D3
:101690006E6974732F7332293A20503C7072696EF0
:1016A000745F616363656C3E20523C726574726165
:1016B00063745F616363656C3E20543C7472617651
:1016C000656C5F616363656C3E0020204D32303194
:1016D0002058004D6178696D756D20416363656CBC
:1016E00065726174696F6E2028756E6974732F73EB
:1016F00032293A0020204D3230332058004D617895
:10170000696D756D20666565647261746573202806
:10171000756E6974732F73293A0053746570732062
:1017200070657220756E69743A0020440020204D67
:101730003230302053002044697361626C65640A62
:101740000046696C616D656E742073657474696EB2
:1017500067733A002020473231202020203B20555B
:101760006E69747320696E206D6D00454550524F4F
:101770004D20496E697469616C697A65640A004E2E
:101780006F20454550524F4D2E0A004E6F20454563
:1017900050524F4D2E0A003A0A0020286D6D290044
:1017A00020204D36303320000000FA420000FA427B
:1017B0000000A040000060410000A0420000A042E4
:1017C0000080FC440000BD42D0070000D0070000AC
:1017D000640000001027000053657474696E67731D
:1017E0002053746F7265640020436F756E742058C7
:1017F0003A00C23100001C260000F4190000D80F86
:101800000000EB080000C004000075020000400169
:10181000000024F4D43050C38E20C2A24017828B23
:101820007011127A910D816CD90AA861E108C7582C
:101830006607615143061E4B5D05C145A7041A4169
:101840001104093D9803713931034036DB026533D9
:101850009102D4305402802E1D02632CEE01752AB1
:10186000C501B028A001102781018F2564012B2418
:101870004B01E0223401AC211F018D200D01801F9E
:10188000FC00841EED00971DDF00B81CD200E61B93
:10189000C600201BBC00641AB200B219A8000A19C5
:1018A000A0006A189900D117910040178B00B51657
:1018B000840031167E00B31579003A157300C71401
:1018C0006F0058146A00EE13660088136300251336
:1018D0005E00C7125B006C12570015125400C11154
:1018E000510070114F0021114B00D61049008D108E
:1018F00047004610440002104200C00F4000800F15
:101900003E00420F3C00060F3B00CB0E3800930E0A
:1019100037005C0E3500270E3400F30D3200C10D88
:101920003100900D3000600D2E00320D2D00050DA0
:101930002C00D90C2B00AE0C2900850C29005C0C66
:101940002700350C27000E0C2600E80B2400C40BE2
:101950002400A00B23007D0B23005A0B2100390B20
:101960002100180B2000F80A1F00D90A1E00BB0A2C
:101970001E009D0A1D00800A1D00630A1C00470A04
:101980001B002C0A1B00110A1A00F7091A00DD09B6
:101990001900C4091900AB091900920917007B0945
:1019A0001800630917004C091600360916002009B3
:1019B00016000A091500F5081500E0081400CC0807
:1019C0001400B8081400A4081400900813007D083F
:1019D00012006B0813005808120046081200340861
:1019E0001100230811001208110001081100F0076E
:1019F0001000E0071000D0071000C0071000B0076B
:101A00000F00A107100091070E0083070F00740755
:101A10000F0065070E0057070E0049070E003B0731
:101A20000D002E070E0020070D0013070D000607FE
:101A30000D00F9060C00ED060D00E0060C00D406C2
:101A40000C00C8060C00BC060C00B0060C00A40676
:101A50000B0099060C008D060B0082060B00770622
:101A60000B006C060B0061060A0057060B004C06C3
:101A70000A0042060A0038060A002E060A0024065A
:101A80000A001A060A001006090007060A00FD05EA
:101A90000900F4050900EB050900E2050900D90574
:101AA0000900D0050900C7050900BE050900B505F4
:101AB0000800AD050800A50509009C05080094056F
:101AC00008008C050800840508007C0508007405E2
:101AD00008006C050700650508005D050700560550
:101AE00008004E05070047050700400508003805B7
:101AF0000700310507002A050700230507001C051C
:101B00000600160507000F05070008050600020578
:101B10000700FB040600F5040700EE040600E804D5
:101B20000600E2040700DB040600D5040600CF042B
:101B30000600C9040600C3040600BD040600B7047D
:101B40000600B1040500AC040600A6040600A004CB
:101B500005009B04060095040500900406008A0415
:101B6000050085040500800406007A04050075045C
:101B70000500700405006B0405006604050061049F
:101B800005005C04050057040500520405004D04DF
:101B9000050048040500430405003E0404003A041F
:101BA000050035040500300404002C04050027045A
:101BB0000400230405001E0404001A040400160493
:101BC0000500110404000D040400090405000404C8
:101BD000040000040400FC030400F8030400F40300
:101BE0000400F0030400EC030400E8030400E40331
:101BF0000400E0030400DC030400D8030400D40361
:101C00000400D0030400CC030400C8030300C50390
:101C1000030024F404D9201BC40C5C0E9804C409EE
:101C20005F0265077101F405F900FB04B300480485
:101C30008700C10369005803550003034500BE0235
:101C40003A008402310053022A00290225000402CE
:101C50002000E4011C00C8011900AF011700980121
:101C60001400840113007101100061011000510182
:101C70000E0043010D0036010B002B010B0020016B
:101C80000B00150109000C01090003010800FB000D
:101C90000800F3000800EB000700E4000600DE0087
:101CA0000600D8000600D2000600CC000500C700E0
:101CB0000500C2000500BD000400B9000400B50025
:101CC0000400B1000400AD000400A9000400A50058
:101CD0000300A20003009F0004009B000300980083
:101CE00003009500020093000300900003008D00A4
:101CF00002008B00030088000200860002008400BE
:101D00000300810002007F0002007D0002007B00D2
:101D100002007900020077000100760002007400E2
:101D2000020072000100710002006F0002006D00ED
:101D300001006C0002006A000100690002006700F7
:101D400001006600010065000100640002006200FD
:101D5000010061000100600001005F0002005D0001
:101D600001005C0001005B0001005A000100590005
:101D70000100580001005700010056000100550005
:101D80000100540001005300000053000100520004
:101D9000010051000100500001004F0001004E0001
:101DA00000004E0001004D0001004C0001004B00FE
:101DB00000004B0001004A000100490001004800FA
:101DC00000004800010047000100460000004600F6
:101DD00001004500000045000100440001004300EF
:101DE00000004300010042000000420001004100E9
:101DF000000041000100400001003F0000003F00E2
:101E000001003E0000003E0001003D0000003D00DA
:101E100001003C0000003C0000003C0001003B00D1
:101E200000003B0001003A0000003A0001003900C8
:101E300000003900010038000000380000003800C0
:101E400001003700000037000100360000003600B6
:101E500000003600010035000000350000003500AC
:101E600001003400000034000000340001003300A1
:101E70000000330000003300010032000000320097
:101E8000000032000100310000003100000031008C
:101E900001003000000030000000300001002F0081
:101EA00000002F0000002F0000002F0001002E0076
:101EB00000002E0000002E0001002D0000002D006B
:101EC00000002D0000002D0001002C0000002C005F
:101ED00000002C0000002C0001002B0000002B0053
:101EE00000002B0000002B0001002A0000002A0047
:101EF00000002A0000002A0001002900000029003B
:101F0000000029000000290000002900010028002D
:101F10000000280000002800000028000000280021
:101F20000100270000002700000027000000270014
:101F30000000270001002600000026000000260007
:101F400000002600000026000100250000002500FA
:101F500000002500000025000000250000002500ED
:101F600001002400000024000000240000002400E0
:101F700000002400010023000000230000002300D3
:101F800000002300000023000000230000002300C5
:101F900001002200000022000000220000002200B8
:101FA00000002200000022000100210000002100AA
:101FB000000021000000210000002100000021009D
:101FC000000021000100200000002000000020008F
:101FD0000000200000002000000020000000200081
:101FE0000000200001001F0000001F0000001F0073
:101FF00000001F0000001F0000001F0000001F0065
:1020000001001E0000001E0000001E0000001E0057
:1020100000005761697420666F72206265642068F1
:10202000656174696E672E2E2E0A0020573A0020D3
:10203000573A004520255300202F002042403A0007
:1020400020403A00202D20496E76616C696420653D
:1020500078747275646572206E756D626572202188
:102060000A004D494E54454D5020747269676765AA
:10207000726564004D415854454D50207472696733
:10208000676572656400626564002C2073797374FF
:10209000656D2073746F707065642120486561748C
:1020A00065725F49443A2000004B6420004B692070
:1020B000004B7020006265640050494420417574F3
:1020C0006F74756E652066696E697368656421203A
:1020D00050757420746865206C617374204B702C8B
:1020E000204B6920616E64204B6420636F6E7374B3
:1020F000616E74732066726F6D2062656C6F7720FD
:10210000696E746F20436F6E66696775726174697A
:102110006F6E2E680A00504944204175746F7475C3
:102120006E65206661696C6564212074696D656FF8
:1021300075740A00504944204175746F74756E655A
:10214000206661696C6564212054656D70657261FB
:102150007475726520746F6F20686967680A002063
:102160004B643A2000204B693A2000204B703A2003
:10217000000A20436C617373696320504944200A4C
:1021800000204B643A2000204B693A2000204B701D
:102190003A20000A204E6F206F76657273686F6F69
:1021A000740A002054753A2000204B753A20002014
:1021B0006D61783A2000206D696E3A200020643A03
:1021C000200020626961733A200050494420417523
:1021D000746F74756E652073746172740A0050496F
:1021E00044204175746F74756E65206661696C6515
:1021F00064212054656D7065726174757265207418
:102200006F6F20686967680A00453100236465665E
:10221000696E652044454641554C545F00486561F0
:1022200074696E67206661696C65640054686572E4
:102230006D616C2052756E61776179001000AD039D
:1022400030016A0150022B0170030A019004F5006D
:10225000B005E500D006D800F007CE001009C50093
:10226000300ABE00500BB700700CB100900DAB00EF
:10227000B00EA600D00FA200F0109D001012990021
:10228000301395005014920070158E0090168B003C
:10229000B0178700D0188400F0198100101B7E0051
:1022A000301C7B00501D7900701E7600901F73005B
:1022B000B0207000D0216E00F0226B001024690065
:1022C00030256600502663007027610090285E006C
:1022D000B0295C00D02A5900F02B5600102D540074
:1022E000302E5100502F4E0070304B00903148007E
:1022F000B0324500D0334200F0343E0010363B008F
:10230000303737005038330070392E00903A2900AA
:10231000B03B2300D03C1B00F03D1100103F0100FA
:10232000F03F000070012C0190012701B001220153
:10233000C0011D01F00118011002130130020E014D
:102340006002090190020401C002FF000003FA00CC
:102350004003F5008003F000D003EB002004E6000A
:102360007004E100E004DC004005D700C005D200A5
:102370004006CD00D006C8008007C3003008BE006C
:10238000F008B900C009B400B00AAF00B00BAA0051
:10239000D00CA500000EA000500F9B00C0109600AE
:1023A0005012910000148C00C0158700B0178200F5
:1023B000B0197D00D01B7800001E730040206E0015
:1023C00090226900F024640040275F0090295A00A1
:1023D000E02B5500102E500020304B0010324600EC
:1023E000E033410090353C00103737007038320040
:1023F000A0392D00B03A2800A03B2300603C1E000D
:10240000103D1900903D1400103E0F00703E0A0070
:10241000C03E0500003F0000403FFBFF803FF6FF4D
:10242000C03FF1FF4265642048656174696E672EA4
:102430002E2E00436F6F6C696E672E2E2E0048653E
:102440006174696E672E2E2E004572723A204D49D6
:102450004E54454D50004572723A204D41585445F6
:102460004D5000544845524D414C2052554E415715
:1024700041590048656174696E67204661696C6501
:10248000640042656400496E76616C696420657819
:102490007472756465720A007C3C3E5E2B3D3F2F72
:1024A0005B5D3B2C2A225C002F6175746F25632EC7
:1024B00067006572726F722077726974696E672047
:1024C000746F2066696C650A004E6F742053442057
:1024D0007072696E74696E670A0053442070726985
:1024E0006E74696E67206279746520002E0A00445C
:1024F000656C6574696F6E206661696C65642C201B
:1025000046696C653A200046696C652064656C65B7
:102510007465643A0046696C652073656C65637424
:1025200065640A002053697A653A200046696C6543
:10253000206F70656E65643A2000454E4420535507
:1025400042524F5554494E450A002220706F730085
:102550002220706172656E743A2200535542524FC8
:102560005554494E452043414C4C20746172676577
:10257000743A22004578636565646564206D61780E
:1025800020535542524F5554494E4520646570744E
:10259000683A002066696C653A2000667265736867
:1025A00000646F696E67004E6F7720002E0A006F1F
:1025B00070656E206661696C65642C2046696C6587
:1025C0003A20000A4D323400534420636172642083
:1025D0006F6B0A006F70656E526F6F742066616971
:1025E0006C65640A00766F6C756D652E696E697432
:1025F000206661696C65640A004E6F205344206355
:102600006172640A00286E6F2066696C6529004358
:10261000616E6E6F74206F70656E20737562646991
:1026200072200057726974696E6720746F20666942
:102630006C653A200053756263616C6C204F76655F
:1026400072666C6F77000129022904290829102974
:10265000202940298029012C022C0126022604264B
:1026600008261026202640268026402C802C012378
:102670000223042308231023202340238023012046
:102680000220042008201020202040208020102C30
:10269000202C012F022F042F082F102F202F402F26
:1026A000802F000100005327120002000010274372
:1026B000000300000C270401030904F2261802039A
:1026C0000904DA261603030904CC260C0C03310096
:1026D000320033003400350000001603550053006B
:1026E00042002000530065007200690061006C0028
:1026F000000018035400650065006E007300790047
:102700006400750069006E006F0000000403090496
:1027100009024300020100C0320904000001020264
:102720000100052400100105240100010424020613
:102730000524060001070582030800400904010082
:10274000020A00000007050302400000070584029A
:102750004000001201000202000020C01683047233
:1027600002010203010001C102018036018136002D
:1027700017183D1D8D471053B5818783FFB3E5CBF7
:10278000E8CC5BD902CC11241FBECFEFD0E2DEBF74
:10279000CDBF12E0A0E0B1E0E2E7F9EC01E00BBF51
:1027A00002C007900D92A033B107D9F722E1A0E350
:1027B000B2E001C01D92AB37B207E1F713E1C2EC02
:1027C000D3E104C02197FE010E94EFD9C83BD10795
:1027D000C9F70E94BCD20C94AAE40C940000A0910A
:1027E0003002B0913102109769F0ED91FC91119790
:1027F00012968D919C9113979093310280933002A1
:102800000995EDCF0895CF93DF93EC0184E090E03C
:102810000E94C2D2009781F0FC01D183C083209135
:1028200030023091310233832283909331028093BE
:10283000300280E090E002C081E090E0DF91CF9133
:10284000089508950C9472BF909164009B7F9093BB
:102850006400982F906A96959CBD80FD03C091E01E
:10286000863009F490E09DBD0895209A289A219A17
:102870002398229A81E0E8CF8FEF8EBD0DB407FE3A
:10288000FDCF8EB5089561157105D1F061507109C4
:102890002FEF2EBDFC01AF01481B590B4617570700
:1028A00038F40DB407FEFDCF3EB531932EBDF3CF06
:1028B0000DB407FEFDCF2EB5FC01E60FF71F2083F8
:1028C00008958EBD0DB407FEFDCF08958EBDFB01AA
:1028D000CB019E5F0DB407FEFDCF20812EBD0DB450
:1028E00007FEFDCF21812EBD3296E817F90791F73B
:1028F0000DB407FEFDCF089581E0089581E00895AD
:102900007F928F929F92AF92BF92CF92DF92EF927F
:10291000FF920F931F93CF93DF931F92CDB7DEB734
:102920007C0159018B016B01C40ED51E0C151D05D0
:1029300059F1F70180809180F80171908F017982BF
:10294000C4010E9494E4781681F0672DC4010E94AE
:102950009CE4C4010E9494E49981891731F07BD3EF
:1029600083ED90E068D381E010C041E050E0BE010B
:102970006F5F7F4FC5010E944E57F70180819181A3
:10298000019691838083D2CF80E00F90DF91CF9129
:102990001F910F91FF90EF90DF90CF90BF90AF907D
:1029A0009F908F907F9008958F929F92AF92BF9249
:1029B000CF92DF92EF92FF920F93CF93DF931F920C
:1029C000CDB7DEB75C016B017A014901F501808169
:1029D00091810E9494E48983002311F0F6018083A1
:1029E00041E050E0BE016F5F7F4FC4010E944E572F
:1029F000F50180819181019691838083FFEFCF1A49
:102A0000DF0A81E0E81AF10809F780E00F90DF9112
:102A1000CF910F91FF90EF90DF90CF90BF90AF904C
:102A20009F908F90089598E288E10FB6F894A8954A
:102A3000809360000FBE9093600008950895CF9337
:102A4000DF931F92CDB7DEB76983DC01ED91FC9176
:102A50000280F381E02D41E050E0BE016F5F7F4FC7
:102A600009950F90DF91CF9108950E9458810E949F
:102A700050718EEF0E94C0600C948C604398089552
:102A8000779876984798FACF439A0895811101C0B4
:102A9000439A0895779A8091B2058E7F8093B2050C
:102AA000769A8091B2058D7F8093B205479A809186
:102AB000B2058B7F8093B205E7CF809173028111BD
:102AC00010C080916505823061F09091A21193FB56
:102AD000882780F993FF0CC08091F90F811103C002
:102AE000089581E0089592FB992790F981E0892764
:102AF00008950C948C5AC82F89EE93E030E6019724
:102B000029F0232F2A950000E9F7F9CFF89489EEF0
:102B100093E038EE019729F0232F2A950000E9F77A
:102B2000F9CF0E94CDA4CC2311F0B4DF01C0ACDFFB
:102B3000A895FECFEC018B01F42E0E94CDA48ED27D
:102B40008DEC91E078D20115110511F0B80102C0A9
:102B500063E772E0209711F0CE0102C084E792E0B3
:102B60000E94E0568F2DC7DFCF92DF92EF92FF9247
:102B70000F931F93182F8091F404843010F40E9457
:102B8000184A0FB6F894C0906212D0906312E09089
:102B90006412F09065120FBE111127C0809173026C
:102BA000811123C040E00091930210919402209182
:102BB0009502309196020115110521053105F9F0B4
:102BC0008091970290919802A0919902B0919A02F7
:102BD000800F911FA21FB31F97018601081B190BBD
:102BE0002A0B3B0B37FF81C00AC0C0929702D092DC
:102BF0009802E0929902F0929A0241E0D4CF0091BB
:102C00000C0110910D0120910E0130910F01011561
:102C100011052105310509F448C09091B406809151
:102C2000B106981749F0C0929702D0929802E092AC
:102C30009902F0929A0239C0411169C00FB6F89416
:102C40008091621290916312A0916412B09165120A
:102C50000FBE409197025091980260919902709135
:102C60009A02400F511F621F731F841B950BA60B06
:102C7000B70BB7FD4CC080913602811116C081E0C0
:102C800080933602779A8091B2058E7F8093B20549
:102C9000769A8091B2058D7F8093B205479A809194
:102CA000B2058B7F8093B205EFDE80913202909166
:102CB0003302A0913402B0913502A7019601281B7E
:102CC000390B4A0B5B0B57FD25C00E944C6F34E655
:102CD000C30ED11CE11CF11CC0923202D09233020F
:102CE000E0923402F092350215C0B8D16091C10271
:102CF0007091C2028DEE91E043D26AE08DE692E1DE
:102D00009EDE40E060E070E080E090E013DF109233
:102D10003602CBCF1F910F91FF90EF90DF90CF90B5
:102D2000089522DF0E941AA680913802882361F05C
:102D30000E9484CB0E94653A0E94EB5480919102DC
:102D4000811102C00C9424B00895CF92DF92EF92CB
:102D5000FF92CF93DF936B017C01D42FC09190023F
:102D600083E08093900281E080933702C114D10404
:102D7000E104F10479F00FB6F89480916212909119
:102D80006312A0916412B09165120FBEC80ED91ED5
:102D9000EA1EFB1E809137028823C9F0C114D104BA
:102DA000E104F10489F00FB6F894809162129091D9
:102DB0006312A0916412B09165120FBE8C199D0927
:102DC000AE09BF09B7FF03C08D2FABDFE3CF109271
:102DD0003702C0939002DF91CF91FF90EF90DF9088
:102DE000CF900895CF92DF92EF92FF92CF9380E839
:102DF00085BF85BF40E950ED63E070E08DE692E16C
:102E00000E94E8D80FB6F894C0906212D090631276
:102E1000E0906412F09065120FBE88EEC80E83E059
:102E2000D81EE11CF11C8DE692E10E9450D981115F
:102E300011C00FB6F8948091621290916312A09124
:102E40006412B09165120FBE8C199D09AE09BF09BD
:102E5000B7FDE9CF86EC91E0EED0F3DCEFDDC4B74F
:102E6000C0FF03C08DEB91E0E6D0C1FF03C08CEA48
:102E700091E0E1D0C2FF03C08AE991E0DCD0C3FF5A
:102E800003C089E891E0D7D0C5FF03C088E791E08F
:102E9000D2D014BE8DE792E0CED060E28DE692E112
:102EA000CEDD8AE691E0C7D06AE08DE692E1C7DD2B
:102EB000D2D08AE291E0BFD0CED083E191E0BBD006
:102EC000CAD0C0DCBC0184E091E0CBD060E675E004
:102ED0008DEE90E0C6D06AE08DE692E1B0DD0E9412
:102EE000305680E00E949C5680913A02811104C0C5
:102EF0000E943D94811168C02091360130913701C4
:102F0000409138015091390160917E0570917F05A3
:102F100080918005909181050E9412DA60933601BC
:102F20007093370180933801909339012091820585
:102F300030918305409184055091850560913A0157
:102F400070913B0180913C0190913D010E9412DA09
:102F500060933A0170933B0180933C0190933D0153
:102F6000209186053091870540918805509189050B
:102F700060913E0170913F0180914001909141012B
:102F80000E9412DA60933E0170933F0180934001EA
:102F9000909341010E948C608CE29DE00E9485A389
:102FA0000E94325A0E94CB5E0E94499780E00E94A4
:102FB000D65E52D338DD81E080933802CF91FF9006
:102FC000EF90DF90CF90089581E080933A0294CF04
:102FD000C0E3D2E011E080E0A4DE8091A21186FF80
:102FE00016C0109279110E94DEC60E94BF453DDDD9
:102FF0000E94F6590E94CDA460E070E080E00E943B
:10300000119F10920001D0936B03C0936A038091CB
:103010003802803139F48AE292E00E9496468111AA
:10302000109338020E9413480E948E5FD4CF89E328
:1030300092E00C94A8C4CF93DF93FC016491EC015F
:103040002196662329F08DE692E1F9DCCE01F5CFD9
:10305000DF91CF9108958BE892E0EDCF81E992E086
:10306000EACFCF93DF93EB01E6DFAE01DD0F660B16
:10307000770B8DE692E1DF91CF910C9406D2CF923F
:10308000DF92EF92FF926A017B01D5DFB701A601C3
:103090008DE692E1FF90EF90DF90CF900C9406D2F6
:1030A000CF92DF92EF92FF926A017B01C4DF22E0B0
:1030B000B701A6018DE692E1FF90EF90DF90CF90EF
:1030C0000C9413D2CF92DF92EF92FF926A017B01B0
:1030D000B2DF20E0B701A6018DE692E1FF90EF900C
:1030E000DF90CF900C949AD1811103C084E892E0D4
:1030F00002C088E892E09FCFF7DF6AE08DE692E1B8
:103100009ECCCF92DF92EF92FF920F931F93CF93BB
:10311000DF936C017B01EA01C901009709F08BDFA5
:10312000F60140815181628173818FE492E0B8DFC2
:10313000F70140815181628173818CE492E0B0DFBC
:10314000488159816A817B8189E492E0A9DF011578
:10315000110551F0C801DF91CF911F910F91FF90A0
:10316000EF90DF90CF9067CF6AE08DE692E1DF913C
:10317000CF911F910F91FF90EF90DF90CF905FCC98
:10318000CF93DF93EB0157DFFE0101900020E9F7B9
:103190003197AF014C1B5D0BBE018DE692E1DF91D3
:1031A000CF910C94E8D7CF92DF92EF92FF926B0110
:1031B0007C0183E3C816D104E104F10470F082E3DA
:1031C000C81AD108E108F10862E370E080E090E0FD
:1031D0000E9425D50E941AA6ECCFC701B6010E9415
:1031E00025D5FF90EF90DF90CF900C941AA6CF9347
:1031F000DF93C0913E02D0913F022097A9F061E099
:103200001C161D060CF060E00E945A9E80913E0242
:1032100090913F021C161D0614F4019701C00196FF
:1032200090933F0280933E02DF91CF9108950F93D8
:103230001F93CF93DF93EB0141E050E060E070E03B
:103240008A019B0104C0000F111F221F331F8A95A2
:10325000D2F7D901C8010E949C65811114C08091E8
:103260003C0290913D028C0F9D1F90933D028093F4
:103270003C0260913E0270913F026C0F7D1F709383
:103280003F0260933E02DF91CF911F910F9108950D
:10329000CF93C82F84E0C89FF0011124E658F94F5E
:1032A0002081318142815381FB0160817181828162
:1032B00093810E945FDC0E94F5DA8C2FCF91B7CF0B
:1032C00090912D069817B1F00E94507180912D06B3
:1032D000882339F086E391E00E94C66F10922D0694
:1032E00007C081E080932D0686E391E00E9437704D
:1032F0000C948C60089580E0E3DF89E096E00C9404
:103300007A5DDC01ED91FC910190F081E02D099452
:10331000CF93C82F60E683EA91E10E94CACCC11125
:1033200003C060E870E002C06FE870E083EA91E1FA
:10333000E8DF83EA91E1CF910C94E6CCCF93C82FDC
:1033400060E683EA91E10E94CACCC11103C060EC3F
:1033500070E002C06FEC70E083EA91E1D2DF83EAB3
:1033600091E1CF910C94E6CCE82FF0E0EE0FFF1F37
:10337000E05CFD4F808191810895E82FF0E0EE0F31
:10338000FF1FE05CFD4F6081718180E090E00E9452
:1033900026DB20E030E048EC52E40E945FDC20E0D5
:1033A00030E04CE555E40E948DDA20E030E040E06A
:1033B0005FE30E9412DA0E94FADA862F0895CF9313
:1033C000DF9383EA91E10E94B3CC48E160E683EAAF
:1033D00091E10E94C8CC83EA91E10E941FCC892B25
:1033E00021F183EA91E10E9427CCC82F83EA91E181
:1033F0000E9427CCD82F83EA91E10E9427CCC3FDFD
:10340000EACF682F8D2F8F700E94B7D2EC2FE07318
:103410000E2E000CFF0B23E0F695E7952A95E1F7B9
:10342000E05CFD4F91838083D6CFDF91CF910895EB
:10343000EF92FF920F931F93CF93DF9360E683EA9F
:1034400091E10E94CACC60E570E083EA91E159DF26
:10345000C0E4D2E07E01098110E0B801606883EA2F
:1034600091E14FDF2296F701608183EA91E10E94AA
:1034700077CCF2E0C834DF0769F783EA91E1DF91A6
:10348000CF911F910F91FF90EF900C94E6CC0F938A
:103490001F93CF93DF9360E683EA91E10E94CACC49
:1034A000C0E4D2E08E01698183EA91E10E9477CC89
:1034B0002296F801608183EA91E10E9477CCF2E0E4
:1034C000C834DF0779F783EA91E1DF91CF911F914B
:1034D0000F910C94E6CCE82FF0E0EE0FFF1FE05CBC
:1034E000FD4F71836083D3CF2F923F924F925F92B3
:1034F0006F927F928F929F92AF92BF92CF92DF9204
:10350000EF92FF920F931F93CF93DF93EC018A8189
:103510009B8100EC1DE0809FB001819F700D909F0A
:10352000700D112480E090E00E9426DB2AE037ED48
:1035300043E25CE30E945FDC0E94FADA2B013C016B
:103540008C819D81809FB001819F700D909F700D37
:10355000112480E090E00E9426DB2AE037ED43E270
:103560005CE30E945FDC0E94FADA4B015C018E8111
:103570009F81809FB001819F700D909F700D1124DD
:1035800080E090E00E9426DB2AE037ED43E25CE336
:103590000E945FDC0E94FADA6B017C0180E4282E35
:1035A00082E0382E88819981809FB001819F700DC3
:1035B000909F700D112480E090E00E9426DB2AE0AD
:1035C00037ED43E25CE30E945FDC0E94FADAF1012E
:1035D000718360835382428295828482D782C682BD
:1035E000DF91CF911F910F91FF90EF90DF90CF90DF
:1035F000BF90AF909F908F907F906F905F904F9013
:103600003F902F9044CFCF93C82F60E083EA91E1A1
:103610000E94CACC6C2F83EA91E10E9477CC83EAA6
:1036200091E1CF910C94E6CCE82F880FFF0BEE547C
:10363000FE4F808199DEBC0180E090E00E9426DB95
:1036400020E030E040E05EE30E945FDC29E032EF02
:1036500044E15CE30C945FDCB2DE86E0D4DF8111F0
:1036600017C081E08093480253DE80E067DE80E08F
:1036700084DE882381F081E080DE882361F082E0AF
:103680007CDE882341F083E078DE882321F007C0C8
:103690008FEF9FEF089581E091E026DFC9DE80E0A3
:1036A00090E0089590914802992379F09B01613C44
:1036B0007D4010F020EC3DE0E82FF0E0EE54FE4FAE
:1036C000B901808108DF88E09ECF0895FF920F93B3
:1036D0001F93CF93DF93F82E8A01D62FC72F20E0B8
:1036E00030E048EC52E4B8018D2F9C2F0E9489DA1B
:1036F00087FD04C000E010E0D8ECC2E420E030E038
:103700004CE555E4B8018D2F9C2F0E945FDC20E032
:1037100030E048EC52E40E948DDA0E94FADA8F2DF4
:10372000DF91CF911F910F91FF90BCCF8091480204
:10373000882309F461C08FDC8CEA92E07CDC8BDCAE
:1037400083E01BDE682F70E080E090E00E9426DBC3
:10375000AB01BC0182E492E0A3DC80E065DFAB0159
:10376000BC0189EA92E09CDC87EA92E064DC82E0BA
:1037700004DE682F70E080E090E00E9426DBAB0161
:10378000BC018EE392E08CDC81E04EDFAB01BC013A
:1037900084EA92E085DC82EA92E04DDC81E0EDDDB6
:1037A000682F70E080E090E00E9426DBAB01BC0156
:1037B0008AE392E075DC82E037DFAB01BC018FE980
:1037C00092E06EDC8DE992E036DC80E0D6DD682F99
:1037D00070E080E090E00E9426DBAB01BC0186E354
:1037E00092E05EDC83E020DFAB01BC018AE992E07D
:1037F00057DC88E992E01FCC08958091480281113E
:1038000017CE089510925202E3E5F2E080E090E0D6
:10381000A0ECBFE380839183A283B38380E090E038
:10382000A8E4B2E484839583A683B78310861186C7
:1038300012861386148615861686178680E090E019
:10384000A0E0B1E4808B918BA28BB38B40E050E081
:1038500060E571E4448B558B668B778B108E118EEF
:10386000128E138E848F958FA68FB78F1092490278
:1038700010924A0210924B0210924C021092510286
:1038800010924D0210924E0210924F02109250026E
:1038900008958F929F92AF92BF92CF92DF92EF9254
:1038A000FF921F93CF93DF93CDB7DEB728970FB664
:1038B000F894DEBF0FBECDBF90915102981709F466
:1038C000CAC0182F40915302509154026091550282
:1038D0007091560280E1E6E3F1E0A2EAB5E00190E2
:1038E0000D928A95E1F78091920690919306A091AE
:1038F0009406B09195068D839E83AF83B88711237C
:1039000009F44DC040934D0250934E0260934F0214
:10391000709350028091570290915802A0915902E1
:10392000B0915A0289839A83AB83BC83CE010196FE
:103930000E943665C0904902D0904A02E0904B0246
:10394000F0904C0220E030E0A901C701B6010E94CE
:1039500089DA81117EC080905B0290905C02A09019
:103960005D02B0905E022AE037ED43E25CE3C50100
:10397000B4010E942BDC18160CF06BC0A501940159
:10398000C701B6010E9412DA6093490270934A029D
:1039900080934B0290934C02CE01059658C020E0D4
:1039A00030E0A9016091490270914A0280914B0276
:1039B00090914C020E9489DA882361F010924902AA
:1039C00010924A0210924B0210924C02CE010596C0
:1039D0000E943665C0905F02D0906002E090610264
:1039E000F090620220E030E0A901C701B6010E9418
:1039F00089DA8823B1F0A7019601609142017091A4
:103A0000430180914401909145010E9411DA609335
:103A100042017093430180934401909345010E94B9
:103A2000966010924D0210924E0210924F02109228
:103A300050028091630290916402A0916502B0915E
:103A4000660289839A83AB83BC83CE0101960E9470
:103A500036651093510228960FB6F894DEBF0FBE5C
:103A6000CDBFDF91CF911F91FF90EF90DF90CF906E
:103A7000BF90AF909F908F900895C4CE2091720117
:103A8000309173012F503109821793070CF49C0178
:103A900030931E0D20931D0D80E00C944FA4CF9207
:103AA000DF92EF92FF92CF93C82F80913B0283FD6C
:103AB00013C08091E40C81110FC08091740190912A
:103AC00075019C012150310940911D0D50911E0D31
:103AD000421753070CF4D2DFCC2349F061E080E0B9
:103AE000CF91FF90EF90DF90CF900C949CB090918D
:103AF000E40C81E0892780930001809100018823F4
:103B000081F160911D0D70911E0D072E000C880B28
:103B1000990B0E9428DB9B01AC016091190D7091FB
:103B20001A0D80911B0D90911C0D0E9411DA6B01F2
:103B30007C0120E030E0A9010E942BDC87FF04C05B
:103B4000C701B601905802C0C701B60120E030E0BD
:103B500040E85FE30E942BDC18161CF480E0E1D8FB
:103B6000CCCF1092000180913B0283FD15C0C09123
:103B7000E40CC11112C080917401909175010197FC
:103B800020911D0D30911E0D281739072CF463DA92
:103B900088E293E050DA01C0C1E08C2FCF91FF9012
:103BA000EF90DF90CF9008950F931F93FB010FB616
:103BB000F894409162125091631260916412709176
:103BC00065120FBE0081118122813381400F511F88
:103BD000621F731FFC0140835183628373831482CD
:103BE0001F910F9108954F925F926F927F928F92E3
:103BF0009F92AF92BF92CF92DF92EF921F93CF939B
:103C0000DF9300D000D0CDB7DEB74C015B016A0175
:103C100080E045DF182F882309F481C0EE20A9F049
:103C20001ADA89E393E007DA7090900283E08093D8
:103C3000900281E08093370280913702882319F047
:103C400081E06FD8F9CF7092900220E030E0A901B6
:103C5000F40160817181828193810E9489DA8823D5
:103C600071F080E090E0A0ECB0E489839A83AB83AC
:103C7000BC83BE016F5F7F4FC4010E94546120E08E
:103C800030E0A901F50160817181828193810E94F8
:103C900089DA882351F140909E0650909F066090EB
:103CA000A0067090A10680E090E0A8ECB1E48093BB
:103CB0009E0690939F06A093A006B093A10680E075
:103CC00090E0A0ECB0E489839A83AB83BC83BE010F
:103CD0006F5F7F4FC5010E94546140929E065092D3
:103CE0009F066092A0067092A10620E030E0A90134
:103CF000F60160817181828193810E942BDC18160C
:103D000074F480E090E0A0E4B0E489839A83AB830C
:103D1000BC83BE016F5F7F4FC6010E945461812F3B
:103D20000F900F900F900F90DF91CF911F91EF9018
:103D3000DF90CF90BF90AF909F908F907F906F90CB
:103D40005F904F90089580E00E94461564E670E011
:103D500080E090E028CA4F925F926F927F92AF927C
:103D6000BF92CF92DF92EF92FF921F93CF93DF9398
:103D7000CDB7DEB728970FB6F894DEBF0FBECDBF24
:103D80005C0180E08CDE182F882309F466C080E097
:103D900090E0A0E7B2E48D839E83AF83B88780E094
:103DA00090E0A0E5B1EC89839A83AB83BC83BE012C
:103DB0006B5F7F4FCE0101960E94546168E873E10A
:103DC00080E090E0F0D9C12CD12C88ECE82E81E481
:103DD000F82ECD82DE82EF82F88680E090E0A8EABD
:103DE000B1E489839A83AB83BC83BE016B5F7F4F51
:103DF000CE0101960E94546140909E0650909F060D
:103E00006090A0067090A106C0929E06D0929F0678
:103E1000E092A006F092A10680E090E0A0E2B1E47A
:103E20008D839E83AF83B887F50180819181A281C4
:103E3000B38189839A83AB83BC83BE016B5F7F4F61
:103E4000CE0101960E94546140929E0650929F06B8
:103E50006092A0067092A10676DF812F28960FB699
:103E6000F894DEBF0FBECDBFDF91CF911F91FF90C1
:103E7000EF90DF90CF90BF90AF907F906F905F906A
:103E80004F900895AF92BF92DF92EF92FF920F93FF
:103E90001F93CF93DF9300D000D0CDB7DEB77C0166
:103EA00080917302811169C081E0809373029091C7
:103EB000A21192FF06C09B7F9093A21182E0809393
:103EC0007302D22E8A015B010E94145A80E1E6E35C
:103ED000F1E0ACE7B2E001900D928A95E1F70E9423
:103EE000507120E030E0A901F70160817181828189
:103EF00093810E9489DA882329F18091E40C811151
:103F000013C06091190D70911A0D80911B0D909145
:103F10001C0D0E94F5DA2091740130917501215039
:103F200031096217730774F080E090E0A0E7B2E413
:103F300089839A83AB83BC83BE016F5F7F4FC701C8
:103F40000E94546187E00E949C65811103C0B50105
:103F50000E946E5720E030E0A901F8016081718174
:103F6000828193810E9489DA882321F042E06D2DBD
:103F7000C801F1DEE8DE81E001C080E00F900F9023
:103F80000F900F90DF91CF911F910F91FF90EF90C5
:103F9000DF90BF90AF900895CF93C82F5CD8C11128
:103FA00003C08EEE92E002C086E093E0CF9143C85A
:103FB000CF92DF92EF92FF920F931F93CF93DF93F5
:103FC000CDB7DEB728970FB6F894DEBF0FBECDBFD2
:103FD000182FE2DF88EC9FEAA0E0B0E08D839E839B
:103FE000AF83B887BE016B5F7F4F84E09DE0DCDD6F
:103FF0000091900283E08093900281E080933702E9
:1040000088ECC82E8FEAD82EE12CF12C8091370253
:10401000882381F18091080D882341F11CD881ED1E
:1040200092E009D841E060E070E0CB010E94A51663
:104030001092040D1092050D1092060D1092070DAE
:104040001092080D80E00E944FA480E028DD812FAF
:10405000A3DFC982DA82EB82FC82BE016F5F7F4FF1
:1040600084E09DE0A1DD81E08093370281E00E9441
:104070009116CCCF0093900228960FB6F894DEBF2D
:104080000FBECDBFDF91CF911F910F91FF90EF90A9
:10409000DF90CF9008954F925F926F927F928F92B0
:1040A0009F92AF92BF92CF92EF920F931F93CF93B5
:1040B000DF93CDB7DEB72C970FB6F894DEBF0FBEF7
:1040C000CDBF30917302332309F4F1C05801122F90
:1040D0002A013B014C01E090080D1092040D109252
:1040E000050D1092060D1092070D1092080D80E03C
:1040F0000E944FA480911D0D90911E0D8A159B0565
:1041000014F4C501BBDCC12C01E0212FA201B301D5
:10411000C40169DD1A141B0434F4C501AFDC60E08E
:1041200080E00E949CB081E0BADC80E090E0A0E7F3
:10413000B2E489839A83AB83BC8380E090E0A0E003
:10414000B0EC89879A87AB87BC87BE016F5F7F4FD2
:10415000CE0109960E94546187E00E949C658111FE
:1041600027C080E090E0A8ECB2E489879A87AB870B
:10417000BC8788E0ECE7F2E0DE01119601900D9239
:104180008A95E1F7BE01675F7F4FCE0101960E94DD
:10419000916280E090E0A0EAB0E489839A83AB83E7
:1041A000BC83BE016F5F7F4F84E892E00E94B362E0
:1041B00080E090E0A0E7B2E489839A83AB83BC837C
:1041C00080E090E0A0E0B0E489879A87AB87BC8765
:1041D000BE016F5F7F4FCE0109960E9454618091AE
:1041E0005102882399F08091530290915402A0913A
:1041F0005502B0915602B05889839A83AB83BC8331
:1042000067E572E0CE0101960E94546120E030E043
:10421000A901609188027091890280918A0290912F
:104220008B020E9489DA87FF0FC080E090E0A0E750
:10423000B2E489839A83AB83BC83BE016F5F7F4FF7
:1042400088E892E00E9454618091880290918902EE
:10425000A0918A02B0918B02809342019093430116
:10426000A0934401B09345018093AE059093AF05B0
:10427000A093B005B093B1058EEA95E00E94E97F66
:1042800080917302815080937302882339F00E94D9
:10429000D6C6809173028150809373028091650528
:1042A000823011F40E948C5A80E00E949C562C9619
:1042B0000FB6F894DEBF0FBECDBFDF91CF911F9137
:1042C0000F91EF90CF90BF90AF909F908F907F9085
:1042D0006F905F904F90089581548A3108F047C0E5
:1042E000E82FF0E04091B6025091B7026091B80219
:1042F0007091B90204C076956795579547958A9550
:10430000D2F7842F817040FF34C0E456FD4F908176
:10431000992341F1E091C102F091C202E90FF11D30
:10432000908120ED290F2A3098F09E3211F491816E
:104330000CC09D3211F09B3271F4918120ED290F58
:104340002A3030F09E3239F4928190539A3018F42A
:104350002E2F9F2F02C020E090E02093BD0290936B
:10436000BE0208951092BE021092BD02089580E030
:10437000089508958091BD029091BE02009731F09A
:104380004AE050E060E070E00C9462DE60E070E0D3
:10439000CB0108954F925F926F927F928F929F927E
:1043A000AF92BF92CF92DF92EF92FF92CF93DF93C3
:1043B00083E592DFD82F8823B9F08091BD029091D8
:1043C000BE02892B11F4C1E013C0D4DF97FD0FC0EA
:1043D000D1DF6F3F71058105910509F0A4F7CADFB0
:1043E000C1E0611105C003C0C0912D0601C0C0E04D
:1043F0008090360190903701A0903801B09039013B
:1044000040903A0150903B0160903C0170903D011A
:10441000C0903E01D0903F01E0904001F0904101FA
:10442000DD2329F0C11103C080E00E94601986E5F8
:1044300053DF882331F068E873E089E096E00E945A
:10444000535E8C2F0E946019CC2351F080912D0671
:10445000811106C00E942E1889E693E00E941B1865
:104460000E942B188BE593E00E941B1880912D066B
:104470000E947C18A501940160913601709137016A
:1044800080913801909139010E9489DA81111CC014
:1044900020913A0130913B0140913C0150913D0106
:1044A000C301B2010E9489DA81110EC020913E0140
:1044B00030913F014091400150914101C701B60147
:1044C0000E9489DA882381F0DF91CF91FF90EF90ED
:1044D000DF90CF90BF90AF909F908F907F906F9024
:1044E0005F904F900C948060DF91CF91FF90EF90A0
:1044F000DF90CF90BF90AF909F908F907F906F9004
:104500005F904F900895E8DE882341F081E020918C
:10451000BD023091BE02232B09F480E00895CF93B1
:10452000DF93D82FC62FEFDF8823B9F08091BD022B
:104530009091BE02892B11F481E016C01BDF97FD1C
:1045400012C018DF6F3F71058105910509F0A4F7CE
:1045500011DF81E0611108C006C08D2FBDDE811121
:10456000EBCF8C2F01C080E0DF91CF9108952F9287
:104570003F924F925F926F927F928F929F92AF92F3
:10458000BF92CF92DF92EF92FF920F931F93CF9340
:10459000DF9300D000D000D0CDB7DEB79E838D83EF
:1045A0000091160C1091170CF80184809580A6805C
:1045B000B78020E030E0A901C501B4010E9412DA01
:1045C0006B017C0120E030E040E251E40E9489DA96
:1045D00087FD05C0C982DA82EB82FC8206C019829F
:1045E0001A82F0E2FB8381E48C83F80140805180E1
:1045F0006280738020E030E0A901C301B2010E9413
:1046000012DA1B018C0120E030E040E251E40E940C
:1046100089DA87FD05C0522D432D302F212F04C08C
:1046200050E040E030E221E4852F942FA32FB22FF9
:10463000ED81FE8180839183A283B38389819A81F6
:10464000AB81BC8184839583A683B78320E030E06F
:1046500040E251E4B601C7010E9489DA87FF06C033
:10466000C12CD12C30E2E32E41E4F42E20E030E0E6
:104670004CE753E4C301B2010E9412DA2B013C0162
:1046800020E030E042E753E40E942BDC18162CF0C7
:10469000542D452D362D272D04C050E040E032E743
:1046A00023E4852F942FA32FB22FED81FE818487E1
:1046B0009587A687B787C601D701808B918BA28B80
:1046C000B38B20E030E048E153E4C501B4010E941F
:1046D00012DA6B017C0120E030E04EE053E40E94EE
:1046E0002BDC181634F4C12CD12C2EE0E22E23E45E
:1046F000F22E20E030E040E251E4B101C8010E9416
:1047000089DA87FF04C0212C312C00E211E420E07B
:1047100030E042E753E4B201C3010E942BDC1816DB
:1047200034F4412C512C82E7682E93E4792E9101C8
:10473000A801B201C3010E9412DA20E030E040E09B
:104740005FE30E945FDCED81FE81608F718F828F5D
:10475000938FC48ED58EE68EF78E26960FB6F8947C
:10476000DEBF0FBECDBFDF91CF911F910F91FF90A4
:10477000EF90DF90CF90BF90AF909F908F907F9001
:104780006F905F904F903F902F9008952F923F929F
:104790004F925F926F927F928F929F92AF92BF9251
:1047A000CF92DF92EF92FF920F931F93CF93DF93FD
:1047B000CDB7DEB7CB58D1090FB6F894DEBF0FBE28
:1047C000CDBF0FB6F8948091621290916312A091C0
:1047D0006412B09165120FBE809397029093980275
:1047E000A0939902B0939A0287E00E9461688111B8
:1047F00094C280912D06882329F060E08FE48FDE3B
:1048000081118BC2CE0101965C018496F501C657D9
:10481000DF4FA882CA58D040C557DF4FB882CB5867
:10482000D040108611861286138614821582168255
:10483000178210821182128213823C96E817F907C0
:1048400081F7C50194DE50902D068AE445DD88236A
:1048500019F00E947B1961C286E555DE882319F0A4
:1048600089DD1B0102C0212C312C25E022163104E8
:1048700028F080E094E00E941B184FC260E084E4BE
:104880004EDE182F21143104B9F08AEE93E00E9415
:104890001B18112321F080EE93E00E941B188AE080
:1048A000A2968FAFA29741E050E0BE016F597F4FB3
:1048B0008DE692E10E94E8D70E94507119A21AA2D7
:1048C0001BA21CA21D8A1E8A1F8A188E19861A8690
:1048D0001B861C860E945463111106C065E370E0BC
:1048E00080E090E00E94FE8180E00E94601981E0FB
:1048F0000E942A82882321F0852D0E9460190DC212
:1049000060E085E40CDE811103C022E0422E02C08B
:104910004424439488248394912C99E5692E712C26
:104920006C0E7D1E84E0680E711C2114310449F068
:10493000B40181ED93E00E9431188CEC93E00E9469
:104940001B189F928F92A5E2B4E0BF93AF9384ECC3
:1049500093E09F938F931F920E94C756F501848125
:104960009581A681B78140815181628173816D9665
:104970004CAF5DAF6EAF7FAF6D97A1968CAF9DAF23
:10498000AEAFBFAFA197EE24E39401E0222D442DFA
:10499000B301CE01875A9F4F0E948E836B017C0129
:1049A0000FB6F894DEBF0FBECDBF9B01AC010E94D5
:1049B00004DD882321F0852D0E946019F9C0D501FE
:1049C0001896CD92DD92ED92FC921B97BCE0AB0E57
:1049D000B11CEFEF8E1A9E0AF4E08F16910409F0D5
:1049E000A4CF1111E5C08CE0FE017996DE01D596C9
:1049F00001900D928A95E1F74D845E846F847888EA
:104A0000A30192016DA97EA98FA998AD0E9411DA28
:104A10006DAB7EAB8FAB98AF89889A88AB88BC882A
:104A2000A501940169AD7AAD8BAD9CAD0E9411DA00
:104A300069AF7AAF8BAF9CAF8D899E89AF89B88DF6
:104A4000CA57DF4F88839983AA83BB83C658D04057
:104A50009C01AD0121966CAD7DAD8EAD9FAD2197D2
:104A60000E9411DA21966CAF7DAF8EAF9FAF219778
:104A70008CE0C657DF4FE881CA58D040C557DF4F9A
:104A8000F881CB58D040DE01AF5BBF4F01900D9253
:104A90008A95E1F7A301920125966CAD7DAD8EADAF
:104AA0009FAD25970E9411DA25966CAF7DAF8EAF32
:104AB0009FAF2597A501940129966CAD7DAD8EAD74
:104AC0009FAD29970E9411DA29966CAF7DAF8EAF0A
:104AD0009FAF2997CA57DF4F288139814A815B816F
:104AE000C658D0402D966CAD7DAD8EAD9FAD2D9747
:104AF0000E9411DA2D966CAF7DAF8EAF9FAF2D97D0
:104B0000AE014B5C5F4FBE016F5B7F4FCE01859660
:104B10000E94B75ABE016B5D7F4FCE01835B9F4FF2
:104B20000E94065C69968CAC9DACAEACBFAC69973C
:104B300020E030E0A901C501B4010E9489DA87FFB5
:104B400024C061968CAD9DADAEADBFAD6197B05840
:104B500061968CAF9DAFAEAFBFAF619765968CADE0
:104B60009DADAEADBFAD6597B05865968CAF9DAFAE
:104B7000AEAFBFAF6597B7FAB094B7F8B094699687
:104B80008CAE9DAEAEAEBFAE6997BE01635B7F4F8C
:104B9000CE018E599F4F0E94BC5D84E2FE01EE590A
:104BA000FF4FA9E0B6E001900D928A95E1F7512CF4
:104BB00080E00E949C5680E00E942A82882321F097
:104BC000852D0E946019A0C0A7019601C701B601FA
:104BD0000E9404DD811198C0232831F065EA73E05A
:104BE00089E096E00E94535E11118BC080E1E6E3FC
:104BF000F1E0DE01959601900D928A95E1F781E052
:104C000080932D06CE0185960E94377010922D0656
:104C1000A090160CB090170CD5012D913D914D919F
:104C20005C916D966CAD7DAD8EAD9FAD6D970E9424
:104C300011DA9B01AC0160913601709137018091CE
:104C40003801909139010E9411DA2B013C012DEBC2
:104C500037E346E855EB0E942BDC87FD47C02DEB80
:104C600037E346E855E3C301B2010E9489DA18161A
:104C7000ECF1F5012481358146815781A1966CAD17
:104C80007DAD8EAD9FADA1970E9411DA9B01AC0165
:104C900060913A0170913B0180913C0190913D01FE
:104CA0000E9411DA4B015C012DEB37E346E855EB2E
:104CB0000E942BDC87FD1AC02DEB37E346E855E355
:104CC000C501B4010E9489DA181684F0A701960183
:104CD00060913E0170913F018091400190914101AE
:104CE0000E9411DA6DA77EA78FA798AB80E1FE0125
:104CF000B596A6E3B1E001900D928A95E1F781E0C7
:104D000001C0852D80932D060E945C6380912D0645
:104D100081110E948C600E948060C557DF4F0FB6E2
:104D2000F894DEBF0FBECDBFDF91CF911F910F91E1
:104D3000FF90EF90DF90CF90BF90AF909F908F90BB
:104D40007F906F905F904F903F902F9008954F927B
:104D50005F926F927F928F929F92AF92BF92CF920B
:104D6000DF92EF92FF92CF93DF93CDB7DEB72C9710
:104D70000FB6F894DEBF0FBECDBF83E00E9461681E
:104D80008111A5C00E948C6020917E0530917F0525
:104D9000409180055091810560E070E08CEF92E4D5
:104DA0000E9411DA6B017C0120918205309183050C
:104DB000409184055091850560E070E088E992E4B7
:104DC0000E9411DA2B013C0180913E0190913F013C
:104DD000A0914001B09141018093AA059093AB0549
:104DE000A093AC05B093AD05A090160CB090170C35
:104DF000F5012081318142815381C701B6010E94B2
:104E000011DA6B017C016093A2057093A305809376
:104E1000A4059093A505F50124813581468157812C
:104E2000C301B2010E9411DA4B015C016093A60537
:104E30007093A7058093A8059093A90527E137EB08
:104E400041ED58EB0E942BDC87FD36C027E030E0B7
:104E500048E153E4C501B4010E9489DA181664F1EF
:104E600027E137EB41ED58EBC701B6010E942BDC7F
:104E700087FD22C027E030E04CE753E4C701B601CC
:104E80000E9489DA1816C4F019861A861B861C86B9
:104E900088E0E2EAF5E0DE01119601900D928A9534
:104EA000E1F7BE01675F7F4FCE0101960E949162DC
:104EB00082E00E9424670BC060E084E594E00E94D9
:104EC00065560E942B1883E394E00E941B182C96D1
:104ED0000FB6F894DEBF0FBECDBFDF91CF91FF902C
:104EE000EF90DF90CF90BF90AF909F908F907F908A
:104EF0006F905F904F9008954F925F926F927F9264
:104F00008F929F92AF92BF92CF92DF92FF920F93B8
:104F10001F93CF93DF93CDB7DEB760970FB6F894AA
:104F2000DEBF0FBECDBF87E00E949C6581111EC011
:104F30008FE4E9DA8823B1F08091BD029091BE023E
:104F4000892B09F47CC116DA97FD10C013DA6F3F84
:104F500071058105910511F00CF071C10BDA611139
:104F60006EC104C08FE4B8D9811169C10E9450712B
:104F70001092130180E00E9460190FB6F89480919E
:104F8000621290916312A0916412B09165120FBEEB
:104F90008093970290939802A0939902B0939A02FB
:104FA0000E94546381E00E94D35E8AE595D9D82E91
:104FB000882399F081E00E949C65082F82E00E947E
:104FC0009C6511E0811101C010E0011108C088E565
:104FD00083D9F82E811103C02AC110E0F8CF112324
:104FE00009F41CC1D11227C101E0FF24F39411E0A0
:104FF00082E589DA882321F18091BD029091BE0279
:10500000009719F1FC016F01B1902B2D2F7D99F0C4
:1050100025E4B21619F025E6B212F5CFF60110829A
:1050200060E070E08091BD029091BE020E940FDDB1
:10503000F601B0820EC060E070E00E940FDD09C092
:1050400060E070E080E490E404C060E070E080E044
:1050500090E04B015C018D869E86AF86B88A20E089
:1050600030E0A901C501B4010E9489DA8823D9F092
:10507000F11005C0011103C0112309F4C3C08091D0
:10508000B20590E0A0E0B0E022E0B695A795979534
:1050900087952A95D1F7682F617020E041E0CE0115
:1050A0000D960E94D562FF2009F4A5C0002309F4E3
:1050B0009FC0109236011092370110923801109261
:1050C000390110923A0110923B0110923C0110926A
:1050D0003D010E948C60E5E4F4E0F490E8E4F4E043
:1050E00085909590A590B490ECE4F4E045905590AF
:1050F00065907490A5019401C301B2010E9489DA00
:1051000087FF05C0A5019401C301B20104C0A3013A
:105110009201C501B4010E948DDA9B01AC010E948D
:105120005FDC20E030E040E85FE30E9412DA0E949A
:10513000C6DC20E030E048E452E40E945FDC69878E
:105140007A878B879C87E6E4F4E0D49020E030E017
:1051500040EC5FE3C301B2010E945FDC2B013C0124
:105160006D2DDD0C770B880B990B0E9428DB9B01C2
:10517000AC01C301B2010E945FDC69837A838B8337
:105180009C8320E030E040EC5FE3C501B4010E9465
:105190005FDC4B015C016F2DFF0C770B880B990BCB
:1051A0000E9428DB9B01AC01C501B4010E945FDCB9
:1051B0006D837E838F839887AE01475F5F4FBE010B
:1051C0006F5F7F4FCE0105960E9470620E94A95EBC
:1051D0001092360110923701109238011092390165
:1051E00010923A0110923B0110923C0110923D0145
:1051F00080E00E942467002319F081E00E94246768
:105200001111A5DD0E948C600E94A45E0E945C6367
:1052100083E0809310010E94806011C011E089E555
:105220005BD8082F811709F4DDCEF12E06C01123BB
:10523000B1F3012F02C0012FF12E1D2DD9CE6096A2
:105240000FB6F894DEBF0FBECDBFDF91CF911F9197
:105250000F91FF90DF90CF90BF90AF909F908F9075
:105260007F906F905F904F9008950F931F93CF930F
:105270008091BD029091BE02009711F1FC018F0157
:10528000C1912C2F2F7DA9F0C53411F0C536B9F787
:10529000F801108260E070E08091BD029091BE0242
:1052A0000E940FDDF801C083562F472F382F292F7A
:1052B0000BC060E070E0CF911F910F910C940FDD57
:1052C00050E040E030E020E0652F742F832F922FD4
:1052D000CF911F910F910895CF92DF92EF92FF929D
:1052E000CF93DF930E940F36C82F87FD8BC0D091DC
:1052F000C30284E408D9882309F454C0B6DF6B01E3
:105300007C0120E030E0A9010E9489DA882309F4B9
:1053100058C084E0C802F0011124EE5CF94FC0824D
:10532000D182E282F38220E030E0A901C701B60118
:105330000E942BDC1816D4F420E030E040E05FE35C
:10534000C701B6010E945FDC9B01AC010E945FDCDB
:105350002BED3FE049E450E40E945FDC6093520192
:1053600070935301809354019093550120E030E0F5
:10537000A9016091320670913306809134069091B4
:1053800035060E9489DA81110CC080E090E0A0EE21
:10539000BFE38093320690933306A0933406B09314
:1053A0003506D1E083E5AFD8C82F882311F180916D
:1053B000BD029091BE02892B19F10E94BA2197FF7C
:1053C0000BC0C0E0C093C302DF91CF91FF90EF907C
:1053D000DF90CF900C94616F0E94BA216F3F7105EE
:1053E0008105910509F074F70E94BA21611108C086
:1053F000E8CF83E50E946C21811102C0CD2FE2CF5E
:10540000C1E0E0CFDF91CF91FF90EF90DF90CF90A0
:1054100008950F931F93CF930E940F3687FD13C0FB
:1054200006EB11E0C0E0F80181918F010E946C2130
:10543000882331F01ADFAB01BC018C2F0E949F80C2
:10544000CF5FC43081F7CF911F910F9108950F93D3
:105450001F93CF930E940F3687FD13C006EB11E018
:10546000C0E0F80181918F010E946C21882331F006
:10547000FCDEAB01BC018C2F0E94B380CF5FC43037
:1054800081F7CF911F910F9108958091B60282719B
:1054900049F48091B8028C7829F48091B902837024
:1054A00009F4089582E40E946C218823C1F0809160
:1054B000BD029091BE02009739F04AE050E060E0F2
:1054C00070E00E948DDF03C060E070E0CB0160936C
:1054D000760670937706809378069093790683E535
:1054E0000E946C21882349F0C0DE6093A606709369
:1054F000A7068093A8069093A90684E50E946C21D4
:10550000882349F0B2DE6093AA067093AB068093BD
:10551000AC069093AD0688E50E946C21882331F09B
:10552000A4DEAB01BC0180E00E94BF8089E50E943F
:105530006C21882331F099DEAB01BC0181E00E942F
:10554000BF808AE50E946C21882331F08EDEAB019A
:10555000BC0182E00E94BF8085E40E946C21882308
:1055600031F083DEAB01BC0183E00C94BF80089571
:10557000CF93DF931F92CDB7DEB78091B70287FD3F
:1055800005C08091B8028E7009F441C083E50E9485
:105590008322882389F069DE60939A0670939B06C4
:1055A00080939C0690939D066093A2067093A30639
:1055B0008093A4069093A50680E50E948322882309
:1055C00049F053DE60939A0670939B0680939C0685
:1055D00090939D0682E50E948322882349F045DE50
:1055E00060939E0670939F068093A0069093A106F9
:1055F00084E50E9483228823C9F137DE6093A206E6
:105600007093A3068093A4069093A5062FC04091A3
:105610009A0650919B0660919C0670919D0688E6C3
:1056200094E00E94501840919E0650919F06609110
:10563000A0067091A10685E694E00E945018409162
:10564000A2065091A3066091A4067091A50688E574
:1056500092E00E9450188AE0898341E050E0BE0148
:105660006F5F7F4F8DE692E10E94E8D70F90DF9148
:10567000CF910895CF93DF9300D0CDB7DEB782E40A
:105680000E946C21882341F080913001909131017A
:1056900090930A018093090182E50E946C2188237E
:1056A00041F08091090190910A019093310180931A
:1056B000300183E50E946C21882331F08091BD0286
:1056C0009091BE02009759F58091B6029091B70271
:1056D000A091B802B091B902892B8A2B8B2B51F57E
:1056E000609130017091310188E794E00E94311897
:1056F00085E2898341E050E0BE016F5F7F4F8DE618
:1057000092E10E94E8D78AE08A8341E050E0BE013E
:105710006E5F7F4F8DE692E10E94E8D70BC04AE0B2
:1057200050E060E070E00E9462DE709331016093AF
:105730003001CACF0F900F90DF91CF9108950F9352
:105740001F93CF93DF930E940F36182F87FD62C0FF
:1057500083E50E946C21C12F012E000CDD0B8823F4
:10576000A1F18091BD029091BE02009771F14AE0D3
:1057700050E060E070E00E9462DEFE01EE0FFF1F6D
:10578000E65AFE4F71836083CC0FDD1FCC0FDD1F07
:105790008E010A5A1E4F072E000C880B990B0E948F
:1057A00028DB2AE037ED43E25CE30E945FDCC25D68
:1057B000D94F288139814A815B810E945FDCF801E1
:1057C000608371838283938325C00E942B1865E4D4
:1057D0008DE692E10E941F1560E3610F8DE692E174
:1057E0000E941F15CC0FDD1FC65ADE4F68817981DC
:1057F0008CE794E00E94311865E28DE692E10E9408
:105800001F156AE08DE692E1DF91CF911F910F9114
:105810000C941F15DF91CF911F910F910895CF9395
:10582000DF931F92CDB7DEB785E40E946C21811112
:105830000FC080E50E946C21882391F016DD6093F3
:10584000200D7093210D8093220D9093230D08C09D
:105850008091BD029091BE02892B09F06BC0E9CF07
:1058600089E40E946C21882379F0FFDC2CEA35EC76
:1058700047E25EE30E945FDC6093240D7093250D88
:105880008093260D9093270D84E40E946C21882339
:1058900079F0EBDC2CEA35EC47E25EE30E948DDA2E
:1058A0006093280D7093290D80932A0D90932B0DF2
:1058B0000E942B184091200D5091210D6091220DD6
:1058C0007091230D8EE994E00E9450182CEA35EC7B
:1058D00047E25EE36091240D7091250D8091260DC5
:1058E0009091270D0E948DDAAB01BC018AE994E00A
:1058F0000E9450182CEA35EC47E25EE36091280DD7
:105900007091290D80912A0D90912B0D0E945FDCE2
:10591000AB01BC0186E994E00E9450188AE08983BB
:1059200041E050E0BE016F5F7F4F8DE692E10E9443
:10593000E8D717C00E94BA2197FD7BCF0E94BA21F9
:105940006F3F71058105910509F02CF40E94BA2181
:10595000662309F46ECF0E942E1884E894E00E941A
:105960001B180F90DF91CF9108950F931F93CF9342
:10597000DF9383E50E946C21D82F882309F43EC071
:105980008091BD029091BE02009721F1FC018F0130
:10599000C1912C2F2F7DA9F0C53411F0C536B9F770
:1059A000F801108260E070E08091BD029091BE022B
:1059B0000E940FDDF801C083562F472F382F292F63
:1059C0000DC060E070E00E940FDD562F472F382F8A
:1059D000292F04C050E040E030E020E0652F742F14
:1059E000832F922F0E94F5DA7093750160937401F2
:1059F00021E0672B09F020E02093E40C80E50E9471
:105A00006C21C82F882301F1809174019091750158
:105A1000892BB9F08091BD029091BE02892B89F04B
:105A20000E94BA2197FD0CC00E94BA216F3F7105F8
:105A30008105910509F02CF40E94BA21611101C081
:105A4000C0E0C093E40C23C0D11121C00E942B18E8
:105A50008EEB94E00E941B188091E40C811103C02E
:105A600087EB94E002C08BEB94E00E941B186091DE
:105A700074017091750186EA94E00E94311882EAFF
:105A800094E0DF91CF911F910F910C941B18DF913F
:105A9000CF911F910F910895CF93DF931F92CDB7B0
:105AA000DEB780E50E946C21882349F0DEDB60933D
:105AB000F80C7093F90C8093FA0C9093FB0C89E42A
:105AC0000E946C21882379F0D0DB2CEA35EC47E288
:105AD0005EE30E945FDC6093FC0C7093FD0C80938E
